:020000040008F2
:10000000E82800209D49080083450800D3400800E7
:100010008545080087450800894508000000000064
:100020000000000000000000000000008B450800F8
:100030008D450800000000008F45080007410800BA
:10004000914508009345080095450800974508002C
:10005000994508009B4508009D4508009F450800FC
:1000600051270800A14508004341080097410800B6
:10007000A34508006F270800AF1A0800D91A080026
:10008000A5450800A7450800A7310800A9450800B4
:10009000AB450800AD450800AF450800B94208006F
:1000A000B1450800B3450800B5450800B74508004C
:0C00B000B9450800BB4508008145080068
:1000BC0010B584B001A8DFF858180CC90CC0083969
:1000CC000838DFF8200C00788DF806000024DFF8E3
:1000DC00EC0ADFF8EC1A0860DFF8E00ADFF8081C1D
:1000EC000860DFF8D80ADFF8041C08600020DFF88D
:1000FC00001C0870DFF8FC0B006800905FF4001027
:10010C00DFF8101808605FF40000DFF8EC1B0860E3
:10011C005FF08070DFF8E01B0860642100A800F03D
:10012C000FFF0028F9D05FF40010DFF8CC1B08603B
:10013C00DFF8C00B006800904FF47A7100A800F053
:10014C00FFFE0028F8D0DFF8AC0B00680090DFF859
:10015C00500C0068C00709D4E4B2002C06D14FF44F
:10016C007A7100A800F0ECFE0400F0E7E4B2002C79
:10017C0010D100F025F800F0CFFB01A800F0B5FB82
:10018C008DF8080001A800F049FA4FF47A713E206E
:10019C0000F00AFB1FBD0020C82801D2401CFBE761
:1001AC005FF08070DFF86C1708600020142801D213
:1001BC00401CFBE75FF08070DFF83C1B0860704769
:1001CC00F0B58BB006A8DFF8401A112200F0D6FE6D
:1001DC0000A8DFF8381A182200F0E0FE0027DFF83C
:1001EC00C00B0068C00740F10B81DFF8240A0068DF
:1001FC0006000020DFF81C1A0860DFF81C0A0068F3
:10020C00C00009D5DFF8100A006830F08050DFF824
:10021C00081A0860761E15E0FFF7BDFFDFF8800BAB
:10022C00006840070ED4DFF8EC09006842F2107148
:10023C00884207D2DFF8DC090068401CDFF8D419CB
:10024C000860EBE7DFF8CC09006842F211718842D4
:10025C0005D300F0D7F806A800F0DCFED0E0DFF8FC
:10026C00400B006830F00400DFF8341B0860DFF846
:10027C00780A00680078A42840F08680DFF8980996
:10028C00006850F08060DFF890190860FFF783FF7A
:10029C00DFF80C0B0068C0070ED5DFF87809006892
:1002AC0042F21071884207D2DFF868090068401CDE
:1002BC00DFF860190860EBE7DFF85C09006830F0E4
:1002CC008060DFF854190860DFF8D40A006830F059
:1002DC000400DFF8CC1A0860DFF83809006842F235
:1002EC001071884246D2DFF828090068861BDFF8B7
:1002FC00F80900680078040000F09AF8DFF8E809C3
:10030C0000680078801C0500EDB2A81C864207D05E
:10031C00DFF80409006850F00100DFF8FC180860F1
:10032C00DFF8C40900680078444000F081F86D1EC5
:10033C00EDB2002DF4D1DFF8B00900680078E4B21A
:10034C0084420ED1DFF8A8090078401CDFF8A01910
:10035C000870DFF8A8090068401CDFF8A0190860D5
:10036C001BE0DFF884090068DFF88019086000F0F2
:10037C0073F812E0DFF888090068401CDFF8801978
:10038C0008600120070008E0DFF878090068401CCD
:10039C00DFF87019086001200700FFB2002F2DD084
:1003AC0000A800F037FEDFF8F8090068C00710D588
:1003BC00DFF86008006842F21071884209D2DFF859
:1003CC0054080068401CDFF84C180860FFF7E3FE87
:1003DC00E9E7DFF8EC070068DFF80C190860DFF8D4
:1003EC00E0070068DFF804190860DFF8B40900685A
:1003FC0030F00600DFF8A819086001E000F018F8EA
:10040C000BB0F0BD72B6DFF8B407DFF8B4170860B4
:10041C00DFF8A807DFF8D0180860DFF8A007DFF8CE
:10042C00CC1808600020DFF8C818087062B6704756
:10043C00DFF8B4080068401CDFF8AC180860DFF87F
:10044C00A8080068DFF87419884204D1DFF86C073B
:10045C00DFF8941808607047DFF890080068401CBB
:10046C00DFF888180860DFF884080068DFF84C199A
:10047C00884204D1DFF84407DFF870180860704731
:10048C0038B5DFF8BC090068C00109D5DFF8B4093C
:10049C0000F0C0FDDFF8B009DFF8B0190860B6E075
:1004AC005FF40010DFF8A8190860DFF8A80900F065
:1004BC00B1FD0020DFF8A01908600020DFF89C19BE
:1004CC0008600020DFF81C1808701020DFF81418E2
:1004DC0048700020DFF80C188870FF20DFF8041833
:1004EC00C870FF20DFF8FC1708710120DFF8F41743
:1004FC0048711020DFF8EC178871CD20DFF8E41775
:10050C00C8710C20DFF8DC1708723720DFF8D4171D
:10051C0048720320DFF8CC1788720420DFF84019EA
:10052C000870DFF84009DFF8381948605FF4800084
:10053C00DFF82C1988600120DFF8241908730220D9
:10054C00DFF81C1948730FF24530DFF814190861F5
:10055C000FF25130DFF808194861DFF86006DFF858
:10056C0000198861DFF85806DFF8F418C8614FF4F9
:10057C008070DFF8EC180884DFF8E40801F02CF93F
:10058C00DFF8E41808600020DFF814180860FFF7A3
:10059C008FFDDFF8D8080078C00617D5DFF8D00833
:1005AC0000F038FDDFF8CC0800F034FD00F044FD1D
:1005BC00DFF8C408006830F48030DFF8BC1808603D
:1005CC000FF24570DFF88418086020E0DFF8AC0803
:1005DC0000F020FD5FF0307004005FF0F07005005B
:1005EC00DFF89C080460DFF89C080460DFF89808CA
:1005FC000560DFF870080560DFF890080460DFF82C
:10060C00900805600FF60910DFF84018086031BD3E
:10061C0080B5DFF838080068804701BDF0B599B0A7
:10062C000400DFF87008076810A8DFF86C182122A6
:10063C0000F0A4FC0AA8DFF86418152200F09EFC58
:10064C0005A8DFF85C18122200F098FC00A8DFF86F
:10065C005418112200F092FCDFF8BC05006810F071
:10066C00406F04D010A800F0D5FC00209AE00020C8
:10067C00DFF8A01508605FF40000DFF8981208603E
:10068C00DFF81C070068C0070ED4DFF88805006887
:10069C0042F21071884207D2DFF878050068401CDE
:1006AC00DFF870150860EBE7DFF86805006842F2C8
:1006BC001171884209D35FF40000DFF83C16086022
:1006CC000AA800F0A7FC00206CE0FFF764FDDFF83F
:1006DC00D006006840070ED4DFF83805006842F2F7
:1006EC001071884207D2DFF82C050068401CDFF837
:1006FC0024150860EBE75FF40000DFF8FC150860D8
:10070C00DFF81005006842F21171884204D30AA880
:10071C0000F080FC002045E0DFF8CC050068007894
:10072C000500EDB2A42D09D1DFF8EC04006850F0FF
:10073C008050DFF8E4140860002033E0FFF778FE07
:10074C00FFF78AFEDFF85806006830F00400DFF887
:10075C0050160860EDB2A52D20D1DFF8BC0400685E
:10076C0050F00060DFF8B01408602078C01C060060
:10077C0022003100DFF8F006006801F0D1F8DFF854
:10078C0028170860DFF820070068002801D0012036
:10079C0008E005A800F03EFC002003E000A800F0F3
:1007AC0039FC002019B0F0BDF0B589B004000D0083
:1007BC0000260127DFF8DC060068009001A8DFF8AE
:1007CC00EC161A2200F0DAFBDFF82805006800901E
:1007DC00DFF8CC050068C00709D5F6B2002E06D1AB
:1007EC004FF47A7100A800F0ABFB0600F0E7F6B20C
:1007FC00002E20D1DFF88006006830F00060DFF8B2
:10080C007816086000F05DFA0020DFF89C1608608E
:10081C00DFF8E00400680090DFF884050068C0078A
:10082C0009D4F6B2002E06D14FF47A7100A800F06C
:10083C0087FB0600F0E7F6B2002E1BD1FFF7C0FCD9
:10084C00DFF8AC040078002814D0DFF8A0040068AE
:10085C00807840280ED1DFF8940400680079E4B267
:10086C00A04207D1DFF8840400684079002801D148
:10087C000020070000F050F8F6B2002E02D001A8BC
:10088C0000F0C8FB3800C0B209B0F0BD80B5DFF88D
:10089C0020060068401CDFF818160860FFF77BFC88
:1008AC0001BD000080B5DFF868030068401CDFF86C
:1008BC0060130860DFF808050068401CDFF80015BD
:1008CC000860DFF8FC040068DFF8F014884204D1FB
:1008DC00DFF8F004DFF8E8140860DFF89C05006826
:1008EC00400101D5FFF757FC01BD10B40100087899
:1008FC00821CA5200023DBB2D2B2934204D20C7826
:10090C006040491C5B1CF6E7C0B210BC704700008D
:10091C00A8490800340E0E4030B585B0DFF8D0037E
:10092C000078002801D1012046E1DFF88C05006831
:10093C00401CDFF884150860DFF8B4030078401E13
:10094C00DFF8AC130870FFF787FDDFF8A003006831
:10095C0000780400E4B2122C01DB01202CE100250C
:10096C00EDB2E4B2E01C85420ADADFF880030068DD
:10097C00007800A9EDB26854FFF76EFD6D1CEFE72F
:10098C009DF801003E2800F0F58040280CD04E2840
:10099C0000F0E2804F2800F0D280522800F0E9806D
:1009AC006F2800F0FB8000E19DF80300012859D06E
:1009BC009DF8030041282DD0422826D04B2802D088
:1009CC004C2815D034E0DFF8F40400F023FBDFF8FA
:1009DC00A804006850F40020DFF89C140860DFF8CD
:1009EC009804006830F48020DFF88C14086023E051
:1009FC00DFF8CC0400F00EFBDFF87C04006830F468
:100A0C00C010DFF87414086016E0DFF8B80400F0CA
:100A1C0001FB11E0DFF8B00400F0FCFADFF8580439
:100A2C000068DFF8A8140840DFF84C14086003E0F5
:100A3C00DFF89C0400F0EEFA9DF80400002804D1C5
:100A4C00DFF82C0400F0E6FA78E0DFF8880400F018
:100A5C00E1FADFF82404006850F00200DFF8181403
:100A6C0008606BE09DF8040000280ED001284CD0E3
:100A7C0002280BD0032830D0052836D0062840D0C9
:100A8C00072846D0082824D050E057E0DFF8480467
:100A9C000078401CDFF840140870DFF83C04007844
:100AAC00002812D1DFF834040078401CDFF82C1435
:100ABC000870DFF828040078002806D1DFF820043D
:100ACC000078401CDFF818140870022000F07AF847
:100ADC0034E0082000F076F830E0824840781028A6
:100AEC0002D1032000F06EF828E0DFF88C030068D8
:100AFC0050F08070DFF880130860052000F062F879
:100B0C001CE0062000F05EF818E0012000F05AF816
:100B1C0014E0DFF8D00300F07DFADFF85C03006826
:100B2C0030F4C010DFF85013086007E0DFF848031A
:100B3C00006850F00400DFF8401308603BE00DF152
:100B4C000301012000F06AF866484078002802D1C1
:100B5C00002000F037F82EE00DF10301012000F029
:100B6C005DF860484078002802D1002000F02AF897
:100B7C0021E020E00020C0B20A2808DA00A9C0B2A7
:100B8C0041188978BB4AC0B28154401CF3E7B7487E
:100B9C00006850F01000B54908600CE0B6480068D9
:100BAC0050F48030B449086005E0B348006850F058
:100BBC000800B1490860002005B030BD08120020C3
:100BCC00B81700201CB50400FF208DF800008DF82C
:100BDC000140FF208DF80200FF208DF80300FF205C
:100BEC008DF80400BE4800788DF80500BB480078ED
:100BFC008DF80600B84800788DF8070000A902208F
:100C0C0000F00CF813BD00001049080068480800FB
:100C1C00A4170020981700208C1700202DE9F04114
:100C2C008CB004000D005FF0000800A8AE492B2228
:100C3C0000F0A4F9142001F021FA0600002E04D1D2
:100C4C0000A800F0E7F9002038E00020C0B2082826
:100C5C0006DAC0B2415DC0B282195171401CF5E791
:100C6C002448006830603471002030617A48006894
:100C7C00002807D1784806608E480068401C8D49D2
:100C8C0008601AE07448006807003869002803D02F
:100C9C003F6918F10108F8E75FFA88F8B8F1200FFE
:100CAC0006D23E6183480068401C8249086004E01B
:100CBC0000A800F0AFF9002000E001200CB0BDE866
:100CCC00F08110B56548006800280AD063480068B8
:100CDC00040062480068806960490860200001F0E7
:100CEC0025FA10BD6C170020BC170020C01700207F
:100CFC00D818002028180020300E0E40D0170020E5
:100D0C00A8170020AC17002070B5012400255A4804
:100D1C000068000420D0754800F07CF96D1C00269A
:100D2C00F6B2042E12DA5448006820420BD07048F8
:100D3C00EDB2142101FB050000F06CF94E4800687F
:100D4C00A0434D4908606400761CE9E74A480068F6
:100D5C00000C000448490860FFF7DEFD10480068ED
:100D6C00C00704D50FF23D003849086016E04E4824
:100D7C000068002812D13948006800280ED0374886
:100D8C000068001DFFF74AFC002807D0594800688E
:100D9C00594908600FF231002C49086070BD000001
:100DAC005418002080B555480068401C5349086011
:100DBC00FFF706FA52482549086001BD08130020C8
:100DCC00B81700200812002010B53748006801F051
:100DDC00EDF90400E4B22000001F01282ED8FFF723
:100DEC0070FF0020304908602348006830F0006034
:100DFC002149086043480068C0070BD53E4800688D
:100E0C0042F21071884205D23B480068401C3A49B6
:100E1C000860EFE73C48006842F21171884209D340
:100E2C003A4800F0F7F837480068C00702D5FFF7DA
:100E3C00B2F9F8E7324805490860FFE710BD000039
:100E4C0010180020040100201D0F0800941700202A
:100E5C00100E0E40BC02002090170020C817002076
:100E6C0064160020000E0E40B41700201418002049
:100E7C00A8030020781700208C17002008020020FF
:100E8C00040C0E40000C0E40040E0E40140C0E40D0
:100E9C00140E0E402C180020104608008048080044
:100EAC002449080038490800B0170020DC47080026
:100EBC00A0170020C4170020D41700205C030020CA
:100ECC004803002034030020A4020020FEFFE3FFAF
:100EDC0088020020B0030020DB180020DA18002064
:100EEC00D91800204C490800BC4508009803002084
:100EFC0070000020281800209C170020CC17002020
:100F0C00150D080054180020981700202802002006
:100F1C00704710B450F8041B81B102681218001D00
:100F2C0050F8043BDC0744BFA9F10104E31852F864
:100F3C00044B43F8044B091FF9D1EBE710BC704785
:100F4C0010B402000C4800681468A04205D30A488B
:100F5C0000681468001B030007E05FF0FF301468A2
:100F6C00001B054C2468201803008B4201D2002082
:100F7C0000E0012010BC70472818002062B38B07DA
:100F8C0008D0521E11F8013B00F8013B00F0248000
:100F9C008B07F6D1830740F0208000BF103A07D3AF
:100FAC0030B4B1E83810103AA0E83810F9D230BC9F
:100FBC00530724BFB1E80810A0E8081044BF51F84B
:100FCC00043B40F8043BD20724BF31F8022B20F835
:100FDC00022B44BF0B7803707047083A07D3B1E873
:100FEC000810083A40F8043B40F804CBF7D25307FA
:100FFC00E4E750F8041B61B150F8042BD30744BF4D
:10100C00A9F101039A18002342F8043B091FFAD1F5
:10101C00EFE7704770B504002500002628780028FB
:10102C0002D0761C6D1CF9E722003100DFF8EC06CB
:10103C00006801F0D3FA70BD80B5DFF8E4060088D3
:10104C00ADF8000000AA0221DFF8D006006801F01C
:10105C00C5FA01BD2DE9FE43040000250026DFF88A
:10106C00C4860020C0B20A2819DAB4FBF8F130317A
:10107C0000AAC0B2815400A9C0B2415C302901D091
:10108C0001210D00EDB2002D00D0761CB4FBF8F15F
:10109C0008FB11440A21B8FBF1F8401CE2E7EDB261
:1010AC00002D01D101200600F6B2300000F0E6FF61
:1010BC008146B9F1000F08D10220DFF86C160870D8
:1010CC000FF22560DFF86416086009200700300075
:1010DC00C0B2002809D000A9795CC0B210EB09029B
:1010EC0002F8011C7F1E401EF2E74A46F6B23100A0
:1010FC00DFF82806006801F071FA484601F016F88E
:10110C00BDE8F78310B40100DFF824060078002254
:10111C00DFF81C361B78D2B29A420CD2DFF81436A8
:10112C00D2B2D35CD2B253540023DFF80846D2B209
:10113C001355521CECE70022DFF8F4351A70C0B2DC
:10114C0010BC704770B5AAB000A8DFF8F0151122DA
:10115C00FFF714FF17A8DFF8E8154822FFF71EFF6A
:10116C000124012505A8DFF8DC154822FFF716FF3E
:10117C0017A8FFF74FFF0026F6B2072E12DADFF89A
:10118C00C805006804420AD10020050005A8F6B283
:10119C000A2101FB0600FFF73DFFFFF74DFF64003E
:1011AC00761CE9E7EDB2002D02D000A8FFF732FF64
:1011BC00FFF742FF2AB070BD00B585B0002080B2A9
:1011CC00802806D20021DFF8842580B28154401C8F
:1011DC00F5E70020DFF8581508700020C0B2802811
:1011EC0006DA0021DFF84C25C0B28154401CF5E72B
:1011FC00DFF85805DFF858150860DFF85005DFF800
:10120C0054150860DFF85005DFF85015086002200F
:10121C008DF80000DFF834050190DFF838050290F6
:10122C008020ADF802000FF25900039000A801F0E5
:10123C0021F9DFF8E8140860DFF8E0040068002802
:10124C0005D10FF2A540DFF8E414086010E0DFF8D8
:10125C001005FFF7DFFEDFF8F004006850F0040023
:10126C00DFF8E41408600FF25D20DFF8C0140860AA
:10127C0005B000BD80B5DFF8B4040068804701BD3F
:10128C00DFF8D0040068401CDFF8C8140860DFF8F1
:10129C00C4040068DFF8CC14884204D1DFF8AC0435
:1012AC00DFF8B0140860704710B592B00AA8DFF8E8
:1012BC00B8141922FFF762FE3A208DF802002020A4
:1012CC008DF803000A208DF824000D208DF82500E0
:1012DC0000208DF826000AA8FFF79CFE0024E4B23B
:1012EC00082C2CDAE4B20A2C07DBE4B20A2094FBBB
:1012FC00F0F030308DF8000002E030208DF8000066
:10130C00E4B20A2094FBF0F100FB114030308DF870
:10131C0001000020C0B220280CDADFF85014E4B22F
:10132C0051F83410C0B2415C00AAC0B282181171DD
:10133C00401CEFE700A8FFF76DFE641CCFE7FFF73A
:10134C007BFE12B010BD10B584B000A8DFF82014DD
:10135C001CC91CC00C390C3800A8FFF75BFE1FBD64
:10136C0010B584B000A8DFF80C141CC91CC00C39D3
:10137C000C3800A8FFF74EFEDFF8BC030078C0075E
:10138C000CD5DFF8B403006840084000DFF8A81360
:10139C000860DFF8E403FFF73DFE3BE0DFF898035D
:1013AC00006850F00100DFF890130860DFF8CC0300
:1013BC00FFF730FE002001F003FB012001F000FBE1
:1013CC00022001F0FDFA032001F0FAFA042001F0EA
:1013DC00F7FA052001F0F4FA062001F0F1FA0720E3
:1013EC0001F0EEFA002001F0EBFA012001F0E8FA2E
:1013FC00022001F0E5FA032001F0E2FA042001F0EA
:10140C00DFFA052001F0DCFA062001F0D9FA0720FA
:10141C0001F0D6FA1FBD10B50400E4B2572C02D16E
:10142C00002001F028FBE4B2502C02D1012001F085
:10143C0022FBE4B2422C02D1022001F01CFBE4B2EC
:10144C00432C02D1032001F016FBE4B2472C02D14D
:10145C00042001F010FBE4B2592C02D1052001F05C
:10146C000AFBE4B24F2C02D1062001F004FBE4B2DB
:10147C00522C02D1072001F0FEFA10BD00B589B044
:10148C0000A8DFF8FC122322FFF778FD00A8FFF775
:10149C00C1FDA9480078800709D5A748006830F03D
:1014AC000200A5490860B448FFF7B4FD08E0A24863
:1014BC00006850F00200A0490860B048FFF7AAFD90
:1014CC0009B000BD38B50024A1480068A1490968DD
:1014DC00884200F09A80E4B2002C40F096809C4840
:1014EC00006800780500EDB22800082802D00D280D
:1014FC0033D03CE09048007840070DD58C480078FC
:10150C00802826DA8B488A4909780D548848007857
:10151C00401C874908701CE085480078002809D0D9
:10152C0083480078401E8249087000208149804A17
:10153C0012785054894800688749884209D08748F6
:10154C000068401E854908608E480088401E8D4901
:10155C0008808D48FFF75EFD40E077480078400733
:10156C0005D4012004000FF2B500704908607048E2
:10157C000078802808DA6F486D4909780D546C485A
:10158C000078401C6A4908702900C9B26348006899
:10159C0001F00CF86848007840071FD46F480068C9
:1015AC0005706E480068401C6C49086075480088DE
:1015BC00401C7449088069480068744988420DD3FE
:1015CC00EDB20D2D0AD064486449086000206D49C5
:1015DC0008806F48FFF71EFD6E490860564800787A
:1015EC00C00703D52800C0B2FFF715FF58480068A4
:1015FC00401C57490860564800685A498842FFF415
:10160C0063AF5248524908605EE7624800680028A0
:10161C0003D06048006800F0C9FD31BD70B50124ED
:10162C00002005004C48EDB2285C5B49EDB2695CCA
:10163C00884201D0002004006D1CE4B2002C02D0C2
:10164C00EDB2042DEEDBE4B2002C2ED00020040011
:10165C004148EDB22856303806006D1C76B2002E8B
:10166C0023D476B20A2E20DA0A2000FB06F04B496E
:10167C0008703948EDB22856303806006D1C76B229
:10168C00002E12D476B20A2E0FDA444800783018A5
:10169C004249087041480078082806DA2E48EDB215
:1016AC00285C0D2801D101200400E4B2002C04D0E8
:1016BC000FF21D001D49086005E03948FFF7AAFC30
:1016CC0038481A49086024482449086070BD000055
:1016DC0080B534481549086024483049097810EB26
:1016EC00C1004068804701BD80B51348006850F0C8
:1016FC000040114908602C48FFF78CFC0A48007820
:10170C00FFF7A8FCFFF798FC00201E490880124840
:10171C001249086023480549086001BDF4170020F0
:10172C00BA2D080000CA9A3BDD180020F0170020E3
:10173C00DC18002008140020EC1700206049080079
:10174C00F0440800384508001418002088140020C4
:10175C0000180020FC170020881500200418002019
:10176C00C000002008150020F847080044010020A4
:10177C008449080090490800D0030020C8030020C9
:10178C0054470800D0180020D8030020C8150020AA
:10179C0048020020F8170020C0030020DE180020AB
:1017AC0084030020D1140800D4020020012110F081
:1017BC001F029140DFF8502840B2430942F8231031
:1017CC007047012110F01F029140DFF8402840B211
:1017DC00430942F8231070472DE9F04704002078A4
:1017EC00022804D034D3042821D010D330E0DFF801
:1017FC002008050050200600DFF818080700082014
:10180C0080467FF0080081461A20824622E0DFF8ED
:10181C000808050060200600DFF80008070000201B
:10182C0080465FF0FF3081463020824612E0DFF8C0
:10183C00F007050050200600DFF8E80707005FF40A
:10184C00002080465FF0FF3081460020824601E098
:10185C00002063E02869C00201D500205EE0DFF8BB
:10186C00C8070068012195F9262091400843DFF84C
:10187C00B817086060686860A068A860207B28734F
:10188C00607B6873206968616069A861A069E86120
:10189C00E0692862208CA884286950F480102861A3
:1018AC0028680660286847602868C0F8088028689F
:1018BC00C0F80C902868C0F820A0687B01281BD1C8
:1018CC00A0692968C1F80001A069401C2968C1F809
:1018DC00100101202968C1F8040101202968C1F810
:1018EC0014010020286240F201102968C1F820017F
:1018FC005FF4002029688860687B022803D1DFF838
:10190C002C072968886095F9260040B2FFF759FF2B
:10191C0095F9260040B2FFF749FF2800BDE8F08793
:10192C00F8B504000D0016003200290014F128004F
:10193C0000F058FC0700002F01D1002007E0DFF871
:10194C00F4060068002801D500F087F83800F2BDD5
:10195C0070B5DFF8E806DFF8B81608600020DFF88D
:10196C00B01648600020DFF8A81688620020DFF867
:10197C00A016C8610020DFF8981688840020DFF8D4
:10198C00901608620020DFF8881608610D20DFF839
:10199C00801681F82600DFF8A806DFF87C160860B0
:1019AC000020DFF8741648600020DFF86C1688629F
:1019BC000020DFF86416C8610020DFF85C1688840C
:1019CC000020DFF8541608620020DFF84C1608617E
:1019DC000E20DFF8441681F82600DFF86806DFF8E1
:1019EC00401608600020DFF8381648600020DFF849
:1019FC00301688620020DFF82816C8610020DFF856
:101A0C00201688840020DFF8181608620020DFF802
:101A1C00101608610F20DFF8081681F82600DFF891
:101A2C00F005DFF8241608608024FF25DFF808662F
:101A3C002A002100300001F087F90FF20D40DFF889
:101A4C00F0150860DFF80406FFF7E4FA70BD80B506
:101A5C00DFF8DC050068804701BD80B5DFF8F005D4
:101A6C00006850F00100DFF8E8150860DFF8A00509
:101A7C00DFF8D4150860DFF8D8050078C0070FD55B
:101A8C00DFF8AC0500688047DFF8C8050068DFF8B0
:101A9C00C81508600121DFF8C005FFF751FAEAE725
:101AAC0001BD80B5DFF87005DFF8B0150860DFF810
:101ABC00B405DFF8AC150860DFF8AC050068401C15
:101ACC00DFF8A415086000F016F801BD80B5DFF84A
:101ADC005005DFF888150860DFF89005DFF88015F1
:101AEC000860DFF88C050068401CDFF8841508607E
:101AFC0000F001F801BD70B5DFF860050068006802
:101B0C0040690600DFF854050068006800690003AE
:101B1C0038D5300336D5DFF8440500684068C06B13
:101B2C00DFF8381509688968084214D1DFF83005E8
:101B3C000068006850F00100DFF82415096808609F
:101B4C00DFF81C050068006830F00600DFF810159F
:101B5C000968086016E0DFF80805006800684008AE
:101B6C004000DFF8FC1409680860DFF8F004006836
:101B7C00407B012806D10120DFF8E01409680968D0
:101B8C00C1F80401DFF8D40400680068006980051E
:101B9C0070D5B0056ED5DFF8C4040068C06A401E6D
:101BAC00DFF8B8140968C862DFF8B0040068006890
:101BBC0080690400DFF8A4040068C06A002825D0FE
:101BCC00DFF898040068006B401CDFF8901409687B
:101BDC000863DFF888040068006B00780400DFF805
:101BEC007C040068007B012803D194FAA4F0000E59
:101BFC0004002000C0B2DFF8641409680968C861E9
:101C0C00DFF8580400684069804733E04FF40070F7
:101C1C00DFF8481409680968C860DFF840040068F8
:101C2C00006930F40010DFF83414096808610421ED
:101C3C00DFF828040068806A006800F0B9FBDFF860
:101C4C001C040068283000F04AFB0120DFF80C145B
:101C5C00096809688860DFF808040068006850F0BB
:101C6C000200DFF8FC1309680860DFF8F003006875
:101C7C0040698047DFF8E403006800680069C0072A
:101C8C0037D5DFF8D803006800684069C00730D545
:101C9C00DFF8C803006800688069C0B20400DFF890
:101CAC00BC030068007B012803D194FAA4F0000E59
:101CBC0004002000C0B2FF2806D1DFF8B80300688A
:101CCC00401CDFF8B0130860DFF890030068006A6E
:101CDC0000680470DFF888030068006850F00400A6
:101CEC00DFF87C1309680860DFF87003006880690E
:101CFC008047DFF86803006800680069000762D558
:101D0C00300760D5DFF854030068407B00282BD1E6
:101D1C000421DFF848030068806A006800F048FB83
:101D2C00DFF838030068283000F0D9FADFF82C030C
:101D3C000068006930F48000DFF82013096808613E
:101D4C00DFF8180300688068C449096849680863AB
:101D5C000220C24909680968C1F820010820BF495E
:101D6C0009680968C8602EE0BD480068006850F03A
:101D7C000400BB4909680860B84800680068D0F8DE
:101D8C001001401CB54909680968C1F81001B34835
:101D9C0000680068D0F80001B0490968C969AF4A09
:101DAC001268928C5118884207D1AC480068C069FF
:101DBC00AA4909680968C1F800010120A749096806
:101DCC000968C1F81401A548006800680069C006DC
:101DDC0039D5F00637D50421A0480068806A006820
:101DEC0000F0E6FA9D480068283000F078FA9B482D
:101DFC000068006930F400109849096808614FF4D4
:101E0C000070964909680968C1F8200110209349AF
:101E1C0009680968C86000200500904800680068DF
:101E2C004069800503D4642D01D26D1CF5E78B4805
:101E3C000068407B002806D1884800688068874984
:101E4C0009684968086370BD10B57F480068806AEE
:101E5C00002800F0B5807C480068006910F4C00FC1
:101E6C0040F0AE8078480068407B002806D1764868
:101E7C00006880687449096849684863724800685A
:101E8C00806A08306C4988422CD103216E48006866
:101E9C00806A006800F08CFA6B480068006950F4A6
:101EAC00800069490968086167480068806A0830E1
:101EBC00654909680968C1F8000163480068806ACF
:101ECC004068614909680968C1F8040108205E4945
:101EDC0009680968886001205B4909680968C1F8CC
:101EEC0020016DE0022158480068806A006800F00B
:101EFC005FFA55480068006950F4001052490968AF
:101F0C00086151480068407B02283BD14E4800686C
:101F1C00806A40684C490968C8624B480068806A0E
:101F2C00083049490968086347480068006B007825
:101F3C00040045480068007B012803D194FAA4F002
:101F4C00000E040008204049096809680860402018
:101F5C003D490968096808602000C0B23A4909681F
:101F6C000968C8610120384909680968C8604FF4DC
:101F7C000070354909680968886033480068406911
:101F8C0080471DE030480068806A08302E49096897
:101F9C000968C1F808012C480068806A40682A4921
:101FAC0009680968C1F80C011020274909680968FB
:101FBC0088604FF48070244909680968C1F82001D1
:101FCC002148006890F826000D2804D015D30F285E
:101FDC0009D004D311E010481B49086013E01048E5
:101FEC00194908600FE00A4817490860184800684A
:101FFC00400840001649086005E01F48FFF70AF842
:10200C0003481149086010BD00E100E080E200E0E7
:10201C00C8150020C0084000FC150020CE18450053
:10202C0030160020FF18410010040E40010008007B
:10203C005818002010180020081500200000094036
:10204C00004009400080094064180020040300206F
:10205C0060180020281800205C1800206818002048
:10206C006C18002050180020701800205418002004
:10207C0074180020781800201C03002070B5054649
:10208C0005F10F00C408E400C046C046A54232D298
:10209C00082C04D2082402E0083000F047F822484B
:1020AC00026811000CD1011D0A6802B31368A34227
:1020BC0038BF111DF8D310E01D68A5420DD2191DB3
:1020CC000B68002BF8D11268011D00E0191D0B687C
:1020DC0093420CD01D68A542F8D361B10D682A68F3
:1020EC00A2F10803A3420AD26A680A600FE000F06A
:1020FC005FFE0028D0D1C046C046002070BD6319D9
:10210C000B60121B6E685E600B681A602C600968AD
:10211C0000291DBF4A68002A091D00210160C04624
:10212C00C04605F1080070BD8417002000B9704747
:10213C0038B5A0F108042068082833D310F0070F35
:10214C0030D1C046C0461848416809B18C4203D210
:10215C006160446017E019464B680BB1A342FAD397
:10216C000B685D18AC421BD3A54204D12268D2186F
:10217C000A600C4607E04A681AB123681B199A4298
:10218C000ED362604C60616851B1226813198B42A6
:10219C0006D10023036008688018206048686060DE
:1021AC00C046C04631BD0000841700200100FF204E
:1021BC009A4A13688B4204D0994B9A4201D00C3244
:1021CC00F7E7974B9A420BD013791800C0B204284A
:1021DC0002D0C0B2052803D1002313600023137171
:1021EC00C0B270472DE9F84F04000D001600AB4645
:1021FC005FF000098B480078102807D18A480068E6
:10220C0050F0010088490860002066E0BBF1000F27
:10221C0062D084480078401C82490870814800785C
:10222C000E2806DB8048006850F002007E490860EA
:10223C0005E07D48006830F002007B4908607B486F
:10224C0082469AF80000002802D11AF1900AF8E7A9
:10225C0000208AF800001AF104000700BBF1810F7E
:10226C0004D380208146BBF1800B02E0D9460020CC
:10227C0083466F4800683860C7F804900020C7F8A0
:10228C00880000207968884205D23178C219117211
:10229C00761C401CF6E72068002801D127600AE074
:1022AC0020688046D8F88800002802D0D8F88880AA
:1022BC00F8E7C8F888705E48006800F087F85C485A
:1022CC000068401C5A4908605948006800289DD194
:1022DC0001205749086099E73868BDE8F28F026819
:1022EC00002A06D1504A126852F004024E4B1A6072
:1022FC001FE04E4A11000A1D03689A4204D04D4A51
:10230C00914201D09031F6E74A4A914206D1464AB1
:10231C00126852F00802444B1A600AE00268D2F8C4
:10232C008820026001220A703E4A1278521E3D4BF0
:10233C001A70704700203B49087001203C49086026
:10234C00002080B2102808DA0121384A80B290238C
:10235C0003FB00221170401CF3E7002080B24028E0
:10236C0016DA00212D4A80B20C2303FB00221160E7
:10237C0000212A4A80B20C2303FB00221171002198
:10238C00264A80B20C2303FB00229160401CE5E737
:10239C002248294908600020234908600FF2610097
:1023AC0026490860704780B524480068804701BD05
:1023BC001A4A1368834204D0194B9A4201D00C324A
:1023CC00F7E7174B9A4200D0117170471A49096808
:1023DC0008600121184A1268117119490968164AD6
:1023EC0012689160144909680C31134A1160124942
:1023FC0009680B4A914202D108490F4A1160704793
:10240C0010480068401E0F4908600E4800680028FC
:10241C0003D14FF47A700B4908607047E40C00202C
:10242C00E40F0020DF18002018180020E40300201F
:10243C0020180020E40C0020241800201C18002078
:10244C0028180020DC030020012110F01F0291400D
:10245C00DFF8FC2440B2430942F8231070470121F5
:10246C0010F01F029140DFF8EC2440B2430942F80F
:10247C00231070472DE9F04704002078012806D07E
:10248C0046D3032823D012D3042830D040E0DFF801
:10249C00C804050050200600DFF8C0040700002027
:1024AC0080465FF0FF3081461A20824632E0DFF82A
:1024BC00B004050050200600DFF8A0040700082037
:1024CC0080467FF0080081461A20824622E0DFF821
:1024DC009404050060200600DFF88C04070000203F
:1024EC0080465FF0FF3081463020824612E0DFF8F4
:1024FC007C04050050200600DFF8740407005FF42C
:10250C00002080465FF0FF3081460020824601E0CB
:10251C00002049E02879C00701D5002044E0DFF80D
:10252C0054040068012195F9222091400843DFF8FA
:10253C00441408606068686160882884A068A86199
:10254C00E068E861686850F001006860286806601F
:10255C00286847602868C0F808802868C0F80C9084
:10256C002868C0F820A060682968C1F8000160687C
:10257C00401C2968C1F8100101202968C1F8040128
:10258C0001202968C1F8140140F201102968C1F832
:10259C00200195F9220040B2FFF761FF95F9220066
:1025AC0040B2FFF751FF2800BDE8F08770B582B04C
:1025BC0004000D008DF8005000AA012114F1080050
:1025CC00FFF710FE0600002E06D0DFF8B0030068FF
:1025DC00002801D500F09BF8300076BDF8B504005A
:1025EC000D0016003200290014F10800FFF7FAFD67
:1025FC000700002F06D0DFF884030068002801D5FF
:10260C0000F085F83800F2BD0020DFF87413086084
:10261C00DFF87003DFF8401308600020DFF8381390
:10262C0088600020DFF8301348610020DFF82813A1
:10263C0008840020DFF8201388610020DFF81813CD
:10264C0048600820DFF8101381F82200DFF8380307
:10265C00DFF80C1308600020DFF8041388600020FA
:10266C00DFF8FC1248610020DFF8F4120884002027
:10267C00DFF8EC1288610020DFF8E41248600D20CE
:10268C00DFF8DC1281F82200DFF80003DFF8D41247
:10269C0008600020DFF8CC1288600020DFF8C4123C
:1026AC0048610020DFF8BC1208840020DFF8B41267
:1026BC0088610020DFF8AC1248600E20DFF8A4120D
:1026CC0081F82200DFF8C802DFF8A01208600020B1
:1026DC00A64988600020A54948610020A3490884C8
:1026EC000020A24988610020A04948600F209F4922
:1026FC0081F822009848A74908600FF27D109E4986
:10270C000860704780B59C480068804701BD80B563
:10271C009B48006850F00100994908608E489D491B
:10272C00086097480078C0070BD59348006880472D
:10273C00994800689949086001219848FEF700FC07
:10274C00EFE701BD80B584489549086095489649E6
:10275C00086096480068401C9449086000F010F826
:10276C0001BD80B57E488E49086091488E4908604D
:10277C0090480068401C8F49086000F001F801BDCA
:10278C0080B58748006800680069000738D5844820
:10279C00006800684069000732D58348006800680B
:1027AC0050F002008049096808607D4800680068A4
:1027BC00D0F81001401C7A4909680968C1F8100169
:1027CC00774800680068D0F81001754909684969B4
:1027DC00734A1268128C5118884207D170480068ED
:1027EC0040696F4909680968C1F810016C480068B4
:1027FC00C069804701206A4909680968C1F8140159
:10280C006748006800680069C00632D564480068F3
:10281C0000684069C0062CD50421614800688068B6
:10282C000068FFF7C5FD5E4800680830FFF757FDEC
:10283C005B480068406830F40010594909684860EA
:10284C004FF40070564909680968C1F8200110203E
:10285C00534909680968C86057480078002805D0B2
:10286C0055480078401E5449087002E05348FEF762
:10287C00D1FB01BD0000000080B5464800688068AF
:10288C00002836D0434800684068800231D40221C9
:10289C004048006880680068FFF78AFD3D48006882
:1028AC00406850F400103B4909684860394800689A
:1028BC0080680830374909680968C1F8080135484B
:1028CC00006880684068334909680968C1F80C01E0
:1028DC001020304909680968886037480078401C26
:1028EC00354908704FF480702A4909680968C1F8A5
:1028FC0020012848006890F82200082806D00D28EE
:10290C0008D00E280AD00F280CD01DE014482149FD
:10291C0008601CE013481F49086018E013481D4963
:10292C00086014E00C481B49086014480068002833
:10293C0009D521480078002805D1114800684008C5
:10294C0040000F49086002E003481249086001BDCD
:10295C0000E100E080E200E088160020C0084000A2
:10296C00AC160020D0160020CE184500F41600201E
:10297C00FF18410010040E4084180020101800208D
:10298C008C18002000060E40000009400040094051
:10299C00008009409018002028180020881800207A
:1029AC00941800207C180020981800209C180020F7
:1029BC0080180020A0180020E3180020BC47080055
:1029CC0010B4DFF86423C0B20A2303FB0022D279CF
:1029DC00012A0CD1DFF85423DFF84C33C0B20A249F
:1029EC0004FB00331B7A12EB8302110009E0D04A7E
:1029FC00CD4BC0B20A2404FB00331B7A12EB8302CA
:102A0C001100CC4AC0B252F820200A600022C64BFA
:102A1C00C0B20A2404FB00331A7010BC704710B407
:102A2C00C14AC0B20A2303FB0022D279012A0AD17F
:102A3C00BF4ABD4BC0B20A2404FB00331B7A12EB15
:102A4C008302110009E0B94AB74BC0B20A2404FB57
:102A5C0000331B7A12EB83021100B64AC0B252F853
:102A6C0020200A600022B04BC0B20A2404FB0033C1
:102A7C001A7010BC7047B049AB4AC0B20A2303FBB2
:102A8C000022127A11EB82010A68AA4BC0B253F8E9
:102A9C0020305A400A60704710B40122A24BC0B2D9
:102AAC000A2404FB00331A709F4AC0B20A2303FBAA
:102ABC00002251809C4AC0B20A2303FB0022918061
:102ACC000122994BC0B20A2404FB00339A7110BC4A
:102ADC00704710B40222944BC0B20A2404FB00339A
:102AEC001A70914AC0B20A2303FB002251808E4A0D
:102AFC00C0B20A2303FB0022918010BC70472DE961
:102B0C00F04182B04FF47A644FF4FA75601B1421D3
:102B1C00B0FBF1F61427FFB2002F2FD05FF0140892
:102B2C001FFA88F8B8F1000F0DD0844800680090A7
:102B3C00012100A8FEF704FA0028F9D000F043F8B0
:102B4C00B8F10108ECE7FFB2142F05D1C82100A899
:102B5C00FEF7F6F90028F9D00020C0B20B2809DAEC
:102B6C00FFB2791E704AC0B20A2303FB00225180C7
:102B7C00401CF2E7A41B75197F1ECCE700F023F86C
:102B8C00C82100A8FEF7DCF90028F9D00020C0B25B
:102B9C000B2804DA0021644A1170401CF7E7082066
:102BAC00FFF70EFF0920FFF70BFF0A20FFF708FFC6
:102BBC006348006850F00100614908606148FEF705
:102BCC0029FABDE8F38110B50024E4B20B2C80F295
:102BDC00AA805548E4B20A2101FB040000780128C0
:102BEC0072D15148E4B20A2101FB0400B0F9020091
:102BFC00002804D12000C0B2FFF711FF5CE04A4866
:102C0C00E4B20A2101FB0400B0F90200142804D13B
:102C1C002000C0B2FFF7D4FE4EE04348E4B20A21D4
:102C2C0001FB04008088401E3F49E4B20A2202FBEB
:102C3C00041188803C48E4B20A2101FB040080881E
:102C4C00002839D13848E4B20A2101FB040080790C
:102C5C0001281AD12000C0B2FFF7E1FE3248E4B2DD
:102C6C000A2101FB0400B0F90200D0F114002E4936
:102C7C00E4B20A2202FB0411888000202A49E4B243
:102C8C000A2202FB0411887116E02000C0B2FFF783
:102C9C0097FE2548E4B20A2101FB04004088224932
:102CAC00E4B20A2202FB0411888001201E49E4B21E
:102CBC000A2202FB0411887101201B49E4B20A228A
:102CCC0002FB041108702CE01748E4B20A2101FB46
:102CDC0004000078022824D11348E4B20A2101FB35
:102CEC0004008088401E1049E4B20A2202FB041141
:102CFC0088800D48E4B20A2101FB0400808800287A
:102D0C000FD12000C0B2FFF7B6FE0748E4B20A218B
:102D1C0001FB040040880449E4B20A2202FB0411BE
:102D2C008880641C51E710BD00000020300C0E4060
:102D3C00340C0E40DC010020380C0E40281800200A
:102D4C0014180020EC02002062F30F2262F31F42E1
:102D5C00401810F0030308D0C91A1FD3DB0748BF73
:102D6C0000F8012D28BF20F8022D130030B41446B2
:102D7C001546103928BF20E93C00FAD8490728BF6E
:102D8C0020E90C0048BF40F8042D890028BF20F82A
:102D9C00022D48BF00F8012D30BC7047C91818BF70
:102DAC0000F8012DCB0728BF00F8012D70470A0D44
:102DBC000749086808B1002070470648C008C000E1
:102DCC0008600549C908C900091A0160704700BFAD
:102DDC00CC1800200700082000400820012110F02A
:102DEC001F029140DFF8902740B2430942F82310AC
:102DFC007047012110F01F029140DFF8802740B28C
:102E0C00430942F823107047F8B504000D00160072
:102E1C008DF80050DFF868070078102801D10020E9
:102E2C005CE000AA0121DFF85C070068001DFFF7D9
:102E3C00D9F90700002F50D00020DFF84C17DFF82D
:102E4C004C271278120150540120DFF83C17DFF8A0
:102E5C003C27127811EB02114860DFF82C07DFF8E1
:102E6C002C17097810EB01100472DFF81C07DFF83F
:102E7C001C17097810EB011086720020DFF8081778
:102E8C00DFF80827127811EB021148720020DFF8E6
:102E9C00F816DFF8F826127811EB0211C860DFF88B
:102EAC00EC060078401CDFF8E4160870DFF8D0065A
:102EBC000078401CDFF8C8160870DFF8D0060078E0
:102ECC00102803D10020DFF8C4160870DFF8C00604
:102EDC000068002801D500F041F93800F2BD2DE959
:102EEC00F04104000D0016001F00DFF89406007876
:102EFC00102801D100205DE032002900DFF88406A3
:102F0C000068001DFFF76EF98046B8F1000F50D035
:102F1C000020DFF87416DFF8742612781201505472
:102F2C000120DFF86416DFF86426127811EB021129
:102F3C004860DFF85406DFF85416097810EB0110DE
:102F4C000472DFF84406DFF84416097810EB011020
:102F5C0087720020DFF83016DFF83026127811EB7C
:102F6C00021148720020DFF82016DFF820261278B4
:102F7C0011EB0211C860DFF814060078401CDFF872
:102F8C000C160870DFF8F8050078401CDFF8F01517
:102F9C000870DFF8F8050078102803D10020DFF85E
:102FAC00EC150870DFF8E8050068002801D500F082
:102FBC00D5F84046BDE8F08110B51224DFF8D405F1
:102FCC0000680121A1400843DFF8C8150860002003
:102FDC00DFF8C4150860DFF8C405DFF8A815086031
:102FEC000020DFF8A81508700020DFF8B415087071
:102FFC000020DFF88C150870DFF8A805DFF89C15A9
:10300C0008600020DFF8941548600020DFF88C156C
:10301C0088600020DFF88415C860DFF86805006858
:10302C000068006850F08000DFF8581509680968DE
:10303C000860DFF874050068DFF87015086005217A
:10304C00DFF86805FDF77CFF0028F8D0DFF8600595
:10305C00DFF830150968096808612420DFF82415A9
:10306C000968096808600020DFF818150968096804
:10307C0048604FF4A170DFF80C15096809684862C4
:10308C004FF63560DFF8FC14096809688862200087
:10309C0040B2FFF7AEFE200040B2FFF79FFE0020CB
:1030AC00DFF8101508600020DFF80C1508600FF22F
:1030BC00A510DFF80815086010BD80B5DFF8FC041A
:1030CC000068804701BD0120C0B200281DD0DFF888
:1030DC00E4140968002918D0DFF8DC1409680978B1
:1030EC00DFF8A024126812685163DFF8CC14096869
:1030FC00491CDFF8C4241160DFF8B8140968491EB4
:10310C00DFF8B0241160401EDEE7DFF8A814096870
:10311C0000291CD10421DFF86C241268126891621A
:10312C00DFF86414DFF87824127811EB0211897A35
:10313C00002912D1DFF84C1409680968096851F0AC
:10314C000201DFF8402412681268116005E00421C6
:10315C00DFF83024126812685162704780B5DFF8CE
:10316C003804006850F00100DFF82C140860DFF818
:10317C0038040068DFF834140860DFF81C040078A9
:10318C00C00709D5DFF83404006880470121DFF857
:10319C001C04FDF7D5FEF0E701BD10B5DFF82004E7
:1031AC0000680400DFF81C0400680440E00508D542
:1031BC00DFF8E403006850F08070DFF8DC1308607F
:1031CC0046E0A00731D5DFF8BC030068007B0007A0
:1031DC002BD5DFF8B00300680068006BDFF8A41390
:1031EC00096889680870DFF89C0300688068401CD7
:1031FC00DFF8901309688860DFF8B8030068401E98
:10320C00DFF8B0130860DFF8AC03006801281FD1A9
:10321C00DFF8700300680068006850F00200DFF807
:10322C00641309680968086012E0600708D5DFF8C4
:10323C0054030068007B800702D5FFF744FF07E0CA
:10324C00DFF85403006850F00070DFF84C1308608E
:10325C0010BD000080B5DFF834030078DFF84013B0
:10326C000978884200F096800020DFF8181309686E
:10327C00096848602420DFF80C13096809680860A5
:10328C00DFF80403DFF8181309780901085C00283B
:10329C0032D1BC48006800684068BB49DFF80023A5
:1032AC00127811EB0211097A50EA0140B54909680C
:1032BC0009684860B348006840684068BD490860C8
:1032CC00B048006840680830BB490860FFF7FBFE57
:1032DC000221AC48006840680068FFF769F8A9480B
:1032EC000068C06850F00600A6490968C8600FF273
:1032FC00A900B249086044E0A348A949097809012A
:10330C00085C01283DD19F480068006840689D49D1
:10331C000968096848609C48A149097810EB0110BC
:10332C004068A449086098489D49097810EB011041
:10333C00C0689449096888609E48006801280AD1D1
:10334C00904800680068006850F003008D490968D7
:10335C000968086009E08B4800680068006850F054
:10336C000100884909680968086086480068C068D7
:10337C0050F0080083490968C8600FF2F1008F49CA
:10338C0008608548006810F07F4F03D00FF255108D
:10339C008A49086001BD000080B57B4880490978E6
:1033AC0010EB0110807A002818D1824800680028A0
:1033BC0026D1744800680068006A400720D571481F
:1033CC0000680068006AC0071AD56E480068C068BB
:1033DC0030F006006B490968C86011E07548006858
:1033EC0000280DD1674800680068006A400707D5BF
:1033FC0064480068C06830F0020062490968C8601F
:10340C0060480068007B800725D404215D48006873
:10341C0040680068FEF7CCFF5A480068001DFEF7B4
:10342C005EFF5D480068400840005B4908606648E4
:10343C00624908605A480078401C59490870504845
:10344C000078401E4E49087055480078102802D16B
:10345C000020534908705048006810F07F4F03D08B
:10346C000FF281005549086001BD00005148006809
:10347C0000282DD1434800680068006A800727D5D2
:10348C00404800680068006AC00721D53D480068C4
:10349C00C06830F008003B490968C8603E480068C5
:1034AC00400840003C4908604748444908603C4893
:1034BC000078401C3A49087031480078401E304969
:1034CC00087037480078102802D100203449087061
:1034DC003148006810F07F4F03D00FF209003749D4
:1034EC000860704780B52C480068C0013AD5264862
:1034FC002649097810EB0110407A401C2249234AD6
:10350C00127811EB021148721F482049097810EB10
:10351C000110407A032821D121480078401C204911
:10352C00087017480078401E154908701C48007830
:10353C00102802D100201A49087012480068007B3C
:10354C0080070BD506210F48006840680068FEF71D
:10355C002FFF0C480068001DFEF7C1FE0020094932
:10356C000968C8600C4800680002000A0A49086033
:10357C0015481249086001BD00E100E080E200E05E
:10358C00E21800204418002008130020E018002046
:10359C001018002010040E40401800205C1700206A
:1035AC00E118002000400840281800203C1800209A
:1035BC001D1D0200481800204C180020381800204F
:1035CC002C4008402040084061320800DFF8D0024F
:1035DC00DFF8D01208600420DFF8CC1208604FF43A
:1035EC008070B2490860B248B2490860B2480068BD
:1035FC00C007FBD5AF480068B0490843AD49086027
:10360C00AF48B0490860AC4800688007FBD54FF460
:10361C000070AD49086042F21100AC490860A64840
:10362C0000680007FBD542F21200A8490860A248C6
:10363C0000680007FBD5A648006850F44410A44964
:10364C0008609D4800684006FBD570470020A149E2
:10365C0008600020A049086041F26F709F49086023
:10366C0000209F49086003209E490860704780B580
:10367C00984800689C490968401A012817D09B4853
:10368C000068401C994908609948006850F0200077
:10369C009749086097480078800708D59648FDF749
:1036AC00B9FC92480068FDF7D5FCFDF7C5FC8948CC
:1036BC0000688D4908609148006830F480108F498B
:1036CC0008608F48006830F004008D490860884815
:1036DC00006850F0804086490860854800684000CA
:1036EC0001D530BFF9E701BD864887490860874896
:1036FC0087490860704780B58648874908608748C5
:10370C008749086087488849086088488849086064
:10371C00002088490860002087490860874888494C
:10372C0008605FF040508749086087488749086007
:10373C008748884908607FF00100874908600120AC
:10374C00864908605FF0F64085490860002085498D
:10375C00086000208449086000208449086084487F
:10376C0084490860002084490860844884490860C2
:10377C00844885490860854885490860854886499C
:10378C00086000208549086000208549086085484C
:10379C00854908600020854908600020844908603C
:1037AC007FF07E40834908608348844908604FF469
:1037BC00E07083490860834883490860002083498E
:1037CC000860002082490860002082490860824815
:1037DC008249086000208249086000F001F801BDB0
:1037EC005FF001107F49086000207F4908600320CA
:1037FC007E49086041F270707D49086041F270703A
:10380C007C49086042F6E0607B49086042F6E06063
:10381C007A49086003207A49086040F2DC50794903
:10382C00086040F2DC507849086040F6B8307749BF
:10383C00086040F6B83076490860704710B4754B94
:10384C0089B2B3FBF1F31A0001280FD1724B1B683C
:10385C00DB0705D5674B1A605308684C236016E0EC
:10386C00634B1A605308644C236010E002280ED19D
:10387C00694B1B689B0705D5634B1A605308644C56
:10388C00236004E05F4B1A605308604C236010BC4B
:10389C0070476249086070476149086070470000D2
:1038AC0073EDFC2710040E4040040E4000040E4043
:1038BC0019F0370020040E4068040E400000370158
:1038CC00013F072028040E4000080E4030040E4033
:1038DC001C040E40281800202C18002014E000E0D6
:1038EC0018E000E010E000E0341800203018002050
:1038FC0010180020EC1700206802002070040E4005
:10390C0010ED00E00005FF1F54120E40010000A551
:10391C0050120E4007000384000C0E40F8FFFC7B95
:10392C00040C0E40F9D755BF100C0E400628AA40C7
:10393C00140C0E40200C0E40240C0E40000001888C
:10394C00300C0E40340C0E4000060004500C0E409F
:10395C00FFF9FFFB540C0E40600C0E40640C0E4043
:10396C00700C0E40800C0E40840C0E408C0C0E40E3
:10397C00000001B4A00C0E40A40C0E4057FFBF0178
:10398C00000E0E4058004000040E0E40E0FFBF0138
:10399C00100E0E401F004000140E0E40200E0E4064
:1039AC00240E0E4000FEBF01300E0E40340E0E40B1
:1039BC00500E0E40540E0E405FFEFF01600E0E4086
:1039CC00640E0E4018004000700E0E40800E0E402B
:1039DC00840E0E408C0E0E40E0FF1F00A00E0E4019
:1039EC00A40E0E4000C0084020C0084000C2084091
:1039FC000CC2084010C2084004C2084008C208406B
:103A0C0020C208402CC2084030C2084024C20840E2
:103A1C0028C20840808D5B000CC0084004C00840E0
:103A2C0008C00840012110F01F0291408D4A40B29D
:103A3C00430942F823107047012110F01F029140F6
:103A4C00894A40B2430942F8231070470100884864
:103A5C00085C012801D1012000E000207047002102
:103A6C00834A8154704738B5002400250020C0B229
:103A7C0004280DDA0021804AC0B2815400217B4A0F
:103A8C00C0B2815400217D4AC0B28154401CEEE783
:103A9C000020C0B204281ADA7949C0B211EB4001F7
:103AAC004978002905D17749C0B251F820100C4350
:103ABC000BE07349C0B211EB40014978802904D165
:103ACC007049C0B251F820100D43401CE1E76E481C
:103ADC0004606E4805606E48006804006D4800681C
:103AEC0005000A20FFF7A8FF0B20FFF7A5FF0A200F
:103AFC00FFF798FF0B20FFF795FF0FF24D0066497B
:103B0C0008606648006850F0020064490860644828
:103B1C00FDF780FA31BD80B55F480068804701BD74
:103B2C000200D2B2042A0CDA5548D2B210EB420091
:103B3C004078C9B2884204D15248D2B250F822001F
:103B4C0000E00020704700000020C0B204280ADA10
:103B5C004949C0B2415C002903D00FF20D014E4A15
:103B6C001160401CF1E7704770B54E484A49086037
:103B7C000026F6B2042E74DA4B484149F6B211EB2A
:103B8C004601497810EB810004003F483C49F6B2ED
:103B9C0011EB4601497810EB810005003648F6B26E
:103BAC00305C00285BD041483B49086019214048F3
:103BBC00F6B210EB8600FDF7C3F900284FD0304861
:103BCC00F6B210F81600002811D12068C0432D4918
:103BDC00F6B251F82610084204D001202749F6B25B
:103BEC00705414E000202549F6B270540FE02068A0
:103BFC002449F6B251F82610084204D001201F497E
:103C0C00F6B2705403E000201C49F6B270541B4805
:103C1C00F6B2305C1549F6B2715C884214D0174884
:103C2C00F6B2305C1149F6B270541048F6B2305C02
:103C3C00012809D101200E49F6B270541D480068C4
:103C4C000C49F6B241F8260000200B49F6B270542C
:103C5C0028680C49F6B251F8261008432860761CE7
:103C6C0087E770BD00E100E080E200E0E017002093
:103C7C00E81700204C170020D8170020E41700206C
:103C8C00B803002074490800400C0E40400E0E4052
:103C9C004C0C0E404C0E0E40DC170020141800206B
:103CAC0070030020553B08003C0C0E40753B08008F
:103CBC003C170020281800200FF2091079490860E1
:103CCC00704780B577480068804701BD00B583B068
:103CDC0000A875490CC90CC0083908387348FDF7A1
:103CEC0099F900A9002000F004F90D21072000F03B
:103CFC001CF91421402000F018F90420FEF78FFE67
:103D0C000520FEF78CFE0620FEF789FE0720FEF745
:103D1C0086FE0020FEF754FE0120FEF751FE022025
:103D2C00FEF74EFE0320FEF74BFE0820FEF748FE82
:103D3C000920FEF774FE0A20FEF742FE07BD00B50F
:103D4C0083B000A85A490CC90CC008390838594826
:103D5C00FDF760F900A9002000F0CBF80D21072039
:103D6C0000F0E3F81421402000F0DFF80020FEF70B
:103D7C0056FE0120FEF753FE0220FEF750FE0320F4
:103D8C00FEF74DFE0820FEF71BFE4FF4FA710420DF
:103D9C00FEF79FFEFA210520FEF79BFE7D210620F3
:103DAC00FEF797FE3F210720FEF793FE0820FEF753
:103DBC0007FE0A20FEF733FE04210920FEF76CFEF5
:103DCC0007BD000080B53C48FDF79CF900280DD0DC
:103DDC0039480078312802D0322804D006E001207E
:103DEC003649087002E00220344908700120FFF7C0
:103DFC002DFE002805D00120FFF731FE01202F49B0
:103E0C0008700220FFF722FE002805D00220FFF7E1
:103E1C0026FE02202949087028480078012802D083
:103E2C0002280CD014E0002025490870FFF74EFF43
:103E3C000120FFF731FD00202049087008E0012027
:103E4C001F490870FFF77BFF00201C490870FFE733
:103E5C001B480078002823D01A480088401C1949B8
:103E6C0008801848008800280BD016480088652860
:103E7C0007DAC8210120FFF7E1FC0120FFF709FD5B
:103E8C000EE01048008865280ADB0120FFF704FDCE
:103E9C000C480088B0F57A7F02D1002009490880CF
:103EAC0001BD0000C0180020B8490800E048080017
:103EBC00C0490800F8480800D6180020E418002073
:103ECC00E5180020D418002010B5040054484470A4
:103EDC000023534A02213C20FFF701F851480068A7
:103EEC00002805D500205049884201D2401CFAE731
:103EFC0010BD70B504000D0054F08000C0B2FFF787
:103F0C00E3FF012006002878002806D028784749CE
:103F1C00F6B270546D1C761CF5E70023434AF6B2DA
:103F2C0031003C20FEF7DBFF70BD70B504000D00C6
:103F3C0054F08000C0B2FFF7C7FF00200600F6B2B5
:103F4C00EDB2AE4206D220203949F6B27118487053
:103F5C00761CF4E70023364AEDB2691C3C20FEF7D0
:103F6C00BEFF70BD00B589B000A832490CC90CC0A9
:103F7C000839083802A830491622FCF7FFFF0FF267
:103F8C00D1002E4908604FF400702D4908602D486F
:103F9C0000682D49086028212B48FCF7D1FF002828
:103FAC00F9D0012200213C20FEF72EFF012300AAAC
:103FBC0006213C20FEF793FF224800682249086046
:103FCC00C8212148FCF7BCFF0028F9D000220C21A5
:103FDC003C20FEF719FF0820FEF7F2FC0920FEF743
:103FEC00EFFC0A20FEF7ECFC012240213C20FEF7FE
:103FFC000BFF002302AA14213C20FEF770FF11488E
:10400C000068114908601148006850F008000F4919
:10401C00086009B000BD80B508480068804701BD44
:10402C00D218002010180020A08601008401002066
:10403C00B0010020B049080098480800081800207A
:10404C00300E0E40281800200C18002014180020E8
:10405C0070477047012110F01F029140604A40B236
:10406C00430942F823107047012110F01F029140C0
:10407C005C4A40B2430942F82310704710B588B02F
:10408C0000A859492022FCF789FF0020C0B208285B
:10409C0009DA00A9C0B251F82010544AC0B242F853
:1040AC002010401CF2E70024E4B21D2C09DA200099
:1040BC0040B2FFF7CFFF200040B2FFF7D5FF641CE2
:1040CC00F2E708B010BD80B50020FEF7A8FC032075
:1040DC00FEF7A5FC0120FEF7A2FC0620FEF79FFCD4
:1040EC000220FEF79CFC0420FEF799FC0520FEF74D
:1040FC0096FC0720FEF764FCFEE73D480068401C78
:10410C003B4908603B48006830F080403949086002
:10411C0039480088401E38490880374800880028F4
:10412C0008D14FF47A703449088034480068401C38
:10413C00324908607047F8B531480068040014F43F
:10414C0000300500002D1CD00027FFB2042F18DA18
:10415C0000213800C0B2FFF7E3FC060035420ED058
:10416C002848006830432749086001202649FFB2DF
:10417C0078541F4800682549FFB241F827007F1C7E
:10418C00E3E70A20FFF770FFF1BDF8B5204800689F
:10419C00040014F007000500002D1CD00027FFB20E
:1041AC00042F18DA80213800C0B2FFF7B9FC0600E2
:1041BC0035420ED01748006830431649086001207C
:1041CC001149FFB278540A4800681049FFB241F80F
:1041DC0027007F1CE3E74FF4006002490860F1BD43
:1041EC0080E100E080E200E09C47080000E400E091
:1041FC002818002010180020E00300202C180020A4
:10420C004C0C0E40440C0E40D81700203C170020DC
:10421C004C0E0E40440E0E40012110F01F02914036
:10422C002B4A40B2430942F823107047012110F089
:10423C001F029140274A40B2430942F823107047AD
:10424C0000B587B000A825491522FCF797FE244835
:10425C002449086024482549086025202449086021
:10426C00102024490860EF202349086002202349CC
:10427C0008602348184908601720FFF7D7FF17205C
:10428C00FFF7CAFF0FF28D001E49086000A8FCF76B
:10429C00C1FE1D48006850F020001B49086007B0A3
:1042AC0000BD80B517480068804701BD80B5174830
:1042BC000068C00607D516480068401C1449086001
:1042CC000548006880475FF400000249086001BDA2
:1042DC0000E100E080E200E0B8180020C8480800C7
:1042EC00000810000401084003C40C0044000840FE
:1042FC005C0008406400084068000840400008402A
:10430C005F400800B418002014180020600008401A
:10431C00BC1800207047000080B52F48006850F092
:10432C0000402D490860FFF7DFF9FFF7E4F9FFF7CC
:10433C004DF9FFF7A3FEFFF789F9FDF7FBFFFEF739
:10434C0063F9FCF739FFFFF77BFFFDF701FBFEF785
:10435C0033FEFFF707FEFEF7D2FBFFF784FBFCF7FB
:10436C008FF800F043F8FFF7A7FC00F09FF800F07F
:10437C00ABF8FCF7E7FE1848006840004008164907
:10438C000860164816490860FEF71DFCFFF7C3FBD2
:10439C00FEF7B8F9FFF785FFFDF759FBFEF78DFE29
:1043AC00FEF701F8FCF766FFFFF735FEFCF730F976
:1043BC0000F062F8FFF785FC00F07DF800F089F85A
:1043CC005FF0004007490860FFF751F95FF00040CB
:1043DC0005490860D5E700BF10180020010000A5B2
:1043EC0050120E40300C0E40340C0E4000B587B00D
:1043FC0000A826491722FCF7C1FD002080B2B0F5B9
:10440C00097F05D20021204A80B28154401CF5E777
:10441C001D481F4908601C481E49086003201E499E
:10442C0008701E481C4948604FF480701A49886017
:10443C0015481949886116481749C8614FF4097025
:10444C001549088400201449087300201249487348
:10445C001148FDF7C1F9124908600FF22900114902
:10446C00086000A8FCF7D6FD0F48006850F040002B
:10447C000D49086007B000BD80B50A480068804748
:10448C0001BD000070470000E40F0020B048080098
:10449C00AC180020B018002018170020000C0E409B
:1044AC00A8180020A4180020141800200FF21500E2
:1044BC0003490860704780B501480068804701BD1A
:1044CC00C4180020704700000FF215000349086063
:1044DC00704780B501480068804701BDC8180020AE
:1044EC00704700000A0D496E697469616C697A61E4
:1044FC0074696F6E20636F6D706C6574652E2054DB
:10450C0079706520656E2B63303020666F72206485
:10451C0065627567206D656E752E20204661696C2D
:10452C006564207461736B733A0A0D004C4544004A
:10453C00000000000000425554544F4E0000000093
:10454C00444542554700000000004C434400000025
:10455C0000000000414E54000000000000005449CF
:10456C004D455200000000005344000000000000C4
:10457C0000000000FEE7FEE7FEE7FEE7FEE7FEE7D1
:10458C00FEE7FEE7FEE7FEE7FEE7FEE7FEE7FEE7F7
:10459C00FEE7FEE7FEE7FEE7FEE7FEE7FEE7FEE7E7
:1045AC00FEE7FEE7FEE7FEE7FEE7FEE7FEE7FEE7D7
:1045BC000A0D4E6F20737061636520696E20416E29
:1045CC007451756575654170706C69636174696F60
:1045DC006E4D6573736167650A0D000010B5074970
:1045EC0079441831064C7C44163404E00A68081DE2
:1045FC00511888470146A142F8D110BD7001000046
:10460C0090010000416E7454783A206D73672061FC
:10461C006C726561647920696E2070726F67726567
:10462C0073730A0D0000000053686F772064656295
:10463C00756720636F6D6D616E64206C6973742097
:10464C00202020202020202000000000546F6767CD
:10465C006C65204C45442074657374202020202008
:10466C0020202020202020202020202000000000BE
:10467C00546F67676C652073797374656D2074690A
:10468C006D696E67207761726E696E6720202020DD
:10469C000000000044756D6D79332020202020200F
:1046AC0020202020202020202020202020202020FE
:1046BC00202020200000000044756D6D79342020EE
:1046CC0020202020202020202020202020202020DE
:1046DC0020202020202020200000000044756D6D3B
:1046EC007935202020202020202020202020202050
:1046FC00202020202020202020202020000000002E
:10470C0044756D6D7936202020202020202020201B
:10471C00202020202020202020202020202020208D
:10472C000000000044756D6D79372020202020207A
:10473C00202020202020202020202020202020206D
:10474C0020202020000000000A0D53797374656D41
:10475C002074696D652076696F6C6174696F6E2069
:10476C007265706F7274696E6720000087C8FFFFF6
:10477C0004150000E40300200000000097C7FFFFB1
:10478C00E4030000380200000000002000000000DC
:10479C00F000F0F000F0F0F0F0F05050503030F04D
:1047AC00F0F020F020F0004040F0F0F0F0100000AD
:1047BC000A0D5541525420636F756E746572206FEB
:1047CC007574206F662073796E630A0D000000000B
:1047DC000D0A414E54206578706563746564206DD4
:1047EC007367206661696C0A0D0000000A0A0D41AE
:1047FC007661696C61626C6520636F6D6D616E646E
:10480C00733A0A0D0000000000F00CF8002801D0EB
:10481C00FFF7E4FE0020C046C046FFF77DFD00F028
:10482C000BF800000249034801600120704700BFEB
:10483C000000080008ED00E000F000B8074638461C
:10484C0000F002F8FBE7000080B5C046C046024A03
:10485C0011001820ABBEFBE726000200416E74521B
:10486C00783A206D657373616765206661696C6564
:10487C00640A0D00416E7454783A2053454E2074EE
:10488C00696D656F75740A0D0000000052415A4F36
:10489C00522053414D335532204153434949202036
:1048AC0020000000536443617264207461736B20B8
:1048BC0064697361626C65640A0D000054696D650E
:1048CC00723120696E697469616C697A65640A0D6C
:1048DC00000000000A0D456E746572696E672073E6
:1048EC007461746520310A0D000000000A0D456EDC
:1048FC00746572696E6720737461746520320A0D79
:10490C0000000000416E7452783A2074696D656F36
:10491C0075740A0D00000000416E7454783A204EF4
:10492C006F20746F6B656E0A0D000000416E74543D
:10493C00783A204E6F2053594E430A0D0000000068
:10494C004368616E6E656C20636C6F7365640A0DF1
:10495C00000000004E6F206661696C656420746114
:10496C00736B732E000000000000020001000000B9
:10497C0002000000040000000A0D44756D6D7921E1
:10498C000A0A0D000A0D4C656420546573742000EE
:10499C00C046C046C046C046FFF736FF024D003E3B
:1049AC0000000000383914725E6D000053544154FD
:1049BC00452031005354415445203200010014006D
:1049CC00140001018000010014001400010180009A
:1049DC0001001400140001018000010014001400F7
:1049EC00010180000100140014000101800001008D
:1049FC0014001400010180000100140014000101D6
:104A0C00800001001400140001018000010014005A
:104A1C001400010180000100140014000101800049
:104A2C000100140014000101800000004C656E6749
:104A3C007468206D69736D617463680A0D00000001
:104A4C00436F6D6D616E64206572726F720A0D003A
:104A5C0000000000556E65787065637465642065B0
:104A6C0076656E740A0D0000556E6578706563741A
:104A7C006564206D6573736167650A0D0A0A0D2AFA
:104A8C002A2A2052415A4F522053414D335532203D
:104A9C004153434949204C434420444556454C4FCF
:104AAC00504D454E5420424F415244202A2A2A0A46
:104ABC000D44656275672072656164790A0D0000AA
:104ACC000A0D232323206E524635313432322050C6
:104ADC00726F6772616D6D696E67204D6F64653AB8
:104AEC00206E6F20414E542066756E6374696F6E34
:104AFC00616C69747920232323230A0D00000000C4
:104B0C0034460800B5120800584608006D1308001A
:104B1C007C46080089140800A046080053130800BE
:104B2C00C446080053130800E84608005313080055
:104B3C000C470800531308003047080053130800B3
:104B4C004000000000000000000000000000000019
:104B5C000000000000000000000000000000000049
:104B6C0000000000000000000000000040000000F9
:104B7C000000000000000000000000000000000029
:104B8C000000000000000000000000000000000019
:104B9C0000000000000000000020000000400000A9
:104BAC0000000400000001000000080000000200EA
:104BBC00008000000000100000040000000800004D
:104BCC00001000006661696C65642E20486F737478
:104BDC0020494F732073657420746F2048695A2ED6
:104BEC000D0A00000A0D5472616E736D6974206DAC
:104BFC006573736167652074696D656F75740A0DF3
:104C0C00000000000D0A2A2A2A20436F6D6D616E88
:104C1C006420746F6F206C6F6E67202A2A2A0D0A2D
:104C2C000A0000000A0D2A2A2A20316D73207469AB
:104C3C006D696E672076696F6C6174696F6E3A206E
:104C4C000000000044656661756C74204368616EF9
:104C5C006E656C20526573706F6E7365200000007A
:104C6C00414E54206368616E6E656C20756E617385
:104C7C007369676E20000000496E697469616C6924
:104C8C007A696E6720414E542E2E2E2000000000B3
:104C9C000A0A4465627567207461736B20657272D1
:104CAC006F723A20000000004C45442066756E631C
:104CBC0074696F6E732072656164790A0D0000006F
:104CCC00535350205065726970686572616C732023
:104CDC0052656164790A0D00496E76616C696420D5
:104CEC0053535020617474656D70740D0A0000008C
:104CFC00414E54206368616E6E656C2061737369FC
:104D0C00676E2000414E54206368616E6E656C20A6
:104D1C00636C6F7365200000414E54206368616EB4
:104D2C006E656C206F70656E2000000042757474A7
:104D3C006F6E207461736B2072656164790A0D006B
:104D4C000A496E76616C696420636F6D6D616E6487
:104D5C000A0A0D00414E5420666C6167733A0A0DC5
:104D6C00000000004F4B0A0D000000004641494C6A
:104D7C000A0D00000000008000800080656E2B632F
:104D8C00000000004F4E0D0A000000004F46460D7B
:104D9C000A00000008200800E8030000E8030000F7
:040000050008499D09
:00000001FF
